:020000040800F2
:10000000D80600206501000879160008E1150008EF
:1000100000000000000000000000000000000000E0
:10002000000000000000000000000000511900085E
:1000300000000000000000007D16000853190008B1
:1000400077010008770100087701000877010008B0
:1000500077010008770100087701000877010008A0
:100060000000000077010008770100087701000810
:100070007701000877010008770100087701000880
:100080007701000877010008770100087701000870
:1000900000000000770100087701000877010008E0
:1000A0007701000877010008770100087701000850
:1000B0007701000877010008000000000000000040
:1000C00000F002F800F03EF80CA030C80838241800
:1000D0002D18A246671EAB4654465D46AC4201D180
:1000E00000F030F87E460F3E0FCCB6460126334274
:1000F00000D0FB1AA246AB4633431847D419000080
:10010000F4190000103A02D378C878C1FAD852071F
:1001100001D330C830C101D504680C6070470000BD
:100120000023002400250026103A01D378C1FBD813
:10013000520700D330C100D50B6070471FB51FBDFB
:1001400010B510BD00F0FAF81146FFF7F7FF01F007
:100150007BFC00F012F903B4FFF7F2FF03BC00F0E0
:1001600019F900000748804707480047FEE7FEE707
:10017000FEE7FEE7FEE7FEE704480549054A064BB1
:1001800070470000CD190008C1000008D800002009
:10019000D8060020D8020020D802002001E004C0C8
:1001A000091F0429FBD28B0701D50280801CC907D7
:1001B00000D00270704700290BD0C30702D0027034
:1001C000401C491E022904D3830702D50280801CEB
:1001D000891EE3E70022EEE70022DFE700220309A1
:1001E0008B422CD3030A8B4211D300239C464EE052
:1001F00003460B433CD4002243088B4231D303090E
:100200008B421CD3030A8B4201D394463FE0C309BF
:100210008B4201D3CB01C01A524183098B4201D3D7
:100220008B01C01A524143098B4201D34B01C01AC2
:10023000524103098B4201D30B01C01A5241C3083A
:100240008B4201D3CB00C01A524183088B4201D3A9
:100250008B00C01A524143088B4201D34B00C01A95
:100260005241411A00D201465241104670475DE0AA
:10027000CA0F00D04942031000D34042534000222D
:100280009C4603098B422DD3030A8B4212D3FC22D6
:10029000890112BA030A8B420CD3890192118B4255
:1002A00008D3890192118B4204D389013AD092116B
:1002B00000E08909C3098B4201D3CB01C01A524126
:1002C00083098B4201D38B01C01A524143098B42EF
:1002D00001D34B01C01A524103098B4201D30B01D8
:1002E000C01A5241C3088B4201D3CB00C01A5241FD
:1002F00083088B4201D38B00C01A5241D9D24308E4
:100300008B4201D34B00C01A5241411A00D2014620
:10031000634652415B10104601D34042002B00D58A
:100320004942704763465B1000D3404201B500204C
:10033000C046C04602BD704770477047754600F022
:1003400025F8AE46050069465346C008C0008546FC
:1003500018B020B5FFF710FF60BC00274908B6466B
:100360000026C0C5C0C5C0C5C0C5C0C5C0C5C0C5C4
:10037000C0C5403D49008D46704710B50446C04693
:10038000C0462046FFF7E7FE10BD0000004870475A
:100390007800002001491820ABBEFEE726000200CD
:1003A0007047000038B50020009000221021052081
:1003B000000700F019F90023DB43032269461148C6
:1003C00000F0C4FE012210210520000700F00CF906
:1003D000684600788107890F68460170417841704E
:1003E0008178FC200140684681700078810368466E
:1003F000407880010843694689788910084304469B
:10040000A0B238BD1400002072B600BFFEE70000A5
:1004100070B503460A460021D7E001268E401468D5
:100420003440002C73D01579AD07AD0F012D04D0E9
:100430001579AD07AD0F022D18D198684E00032530
:10044000B5400646AE4330464E00D568B540284319
:100450009860586801258D400646AE433046102608
:10046000556835402D098D40284358601579AD07F2
:10047000AD0F032D0BD0D8684E000325B5400646BE
:10048000AE4330464E009568B5402843D860157994
:10049000AD07AD0F022D15D1CD08AE001D4620359C
:1004A000A8594D07EE0E0F25B5400646AE4330461F
:1004B0004E07F60E1569B5402843CD08AD001E461F
:1004C0002036705118684E000325B5400646AE43ED
:1004D00030461579AD07AD0F4E00B5402843186082
:1004E0000326360455683540002D6DD03A4D8E08F0
:1004F000B600A8598D07EE0E0F25B5400646AE434F
:10050000304605252D07AB4202D1002510E05BE007
:10051000324DAB4201D101250AE0314DAB4201D150
:10052000022505E02F4DAB4201D1032500E0052552
:100530008E07F60EB5402843274D8E08B600A85109
:10054000254D603D28680546A54328460126360509
:1005500055683540002D02D00546254328461E4DDE
:10056000603D286068680546A54328460126760553
:1005700055683540002D02D0054625432846164DC6
:10058000603D6860144D203568680546A5432846DF
:100590000126760455683540002D02D005462543D6
:1005A00028460D4D2035686028680546A543284635
:1005B0000126360455683540002D02D005462543F6
:1005C0002846054D20352860491C1568CD40002D72
:1005D00000D022E770BD0000601802400004005007
:1005E00000080050000C0050002A01D0816100E09A
:1005F00081627047014800687047000004000020D5
:1006000003480068034909784018014908607047A9
:10061000040000200C00002010B5002408480068E9
:10062000FF210131084306490860032000F00AF861
:10063000002801D0012401E000F034F8204610BD6C
:1006400000200240F8B50446002513480078002831
:100650001ED0114801787D20C000FFF7BFFD07467E
:1006600039460E480068FFF7B9FD064600F09CFFCA
:1006700000280BD1042C07D200222146401E00F096
:1006800033F80748046004E0012502E0012500E09A
:1006900001252846F8BD00000C00002010000020B5
:1006A0000800002008B500BF0E480068012108437B
:1006B0000C49086008460068C007C00F009000BFE2
:1006C00000BF00BF07484038C06B89050843054993
:1006D0004039C8630846C06B09040840009000BF59
:1006E00000BF08BD4010024070B504460D461646D6
:1006F0002946204601F06CF970BD000070B5044633
:100700001148006803214902884320430E490860CC
:100710004815844216D10D490968062251430846FE
:100720000B49FFF75BFD451C05E0002D01D06D1E58
:1007300001E0032070BD044840690121890208409E
:100740008842F2D00020F5E7007000401000002041
:1007500040420F0070B504460D46002C01D1012027
:1007600070BD6B4800684007400FA84218D2684827
:100770000068C008C000284365490860FFF73AFFD9
:10078000064607E0FFF736FF801B6249884201D921
:100790000320E5E75E4800684007400FA842F1D11A
:1007A000022120680840022815D104212068084051
:1007B000042807D158488068072109038843401856
:1007C00055498860544880680F2109028843A16810
:1007D0000843514988602078C007C00F002854D0D2
:1007E0006068012808D14C4800680121490408408C
:1007F00000282ED10120B3E76068022808D14648BE
:100800000068012149060840002822D10120A7E7FD
:100810006068002808D1404800680121890208402A
:10082000002816D101209BE76068032808D13A48C8
:100830004030006A0221084000280AD101208FE7D9
:1008400035484030C06902210840002801D101200C
:1008500086E731488068C008C000616808432E49B7
:100860008860FFF7C7FE064607E0FFF7C3FE801B60
:100870002849884201D9032072E727488068382137
:1008800008406168C9008842EFD1214800684007EC
:10089000400FA84218D91E480068C008C00028436D
:1008A0001B490860FFF7A6FE064607E0FFF7A2FE19
:1008B000801B1849884201D9032051E71448006879
:1008C0004007400FA842F1D10421206808400428C5
:1008D00008D111488068072109038843E16808436B
:1008E0000D49886000F020F80B4989680F22120238
:1008F0001140090A8900094A515CC906C90EC8405D
:100900000749086007480068FFF79CFE28E70000D9
:10091000002002408813000000100240701A0008F6
:100920001000002008000020FEB5354880683821FE
:10093000084000280DD13248006809020840C10A69
:100940000120884000902F480099FFF747FC04469B
:1009500054E02B48806838210840082801D12A4CEF
:100960004CE02748806838210840102834D12448BA
:10097000C0688607B60F2248C06870210840000989
:10098000401C0190022E0FD0032E0CD11E4801995D
:10099000FFF724FC1A49C9687F2212021140090A94
:1009A000484305460DE000BF16480199FFF716FCC5
:1009B0001349C9687F2212021140090A48430546BB
:1009C00000BF00BF0E48C068400F471C394628468C
:1009D000FFF704FC044611E009488068382108400C
:1009E000202801D1840209E00548806838210840A8
:1009F000182802D17D24240200E000242046FEBDF8
:100A0000001002400024F40000127A00FEB50446F3
:100A1000002C01D10120FEBD2078C007C00F0028A6
:100A20006FD0F748876838210F40C0688607B60F37
:100A3000102F01D1032E01D0082F0BD1F0480068F0
:100A400001214904084000285BD06068002858D183
:100A50000120E0E700BF012109046068884205D158
:100A6000E74800680843E649086021E005210904D9
:100A7000606888420ED1E248006801218904084379
:100A8000DF49086008460068012109040843DC4981
:100A900008600DE0DA480068012109048843D8495C
:100AA000086008460068012189048843D449086029
:100AB00000BF6068002812D0FFF79CFD054606E0E5
:100AC000FFF798FD401B642801D90320A3E7CC4819
:100AD00000680121490408400028F1D011E0FFF727
:100AE00089FD054606E0FFF785FD401B642801D916
:100AF000032090E7C248006801214904084000280B
:100B0000F1D1022120680840022873D1BC488068D6
:100B1000382108400746BA48C0688607B60F102F2C
:100B200001D1022E01D0002F36D1B5480068012135
:100B300089020840002804D0E068002801D1012083
:100B400069E7AF4840687F2109028843616909026B
:100B50000843AB494860002F16D1084600680721BA
:100B6000C902884321690843A5490860084600680E
:100B70000722D2021040C20A012090400146A1483B
:100B8000FFF72CFBA0490860A0480068FFF75AFD5A
:100B9000002849D001203EE7E06800282BD0984883
:100BA00000680721C9028843216908439449086005
:100BB000084600688915084391490860FFF71AFD47
:100BC000054606E0FFF716FD401B022801D9032069
:100BD00021E78B4800680121890208400028F1D0F4
:100BE000874840687F2109028843616909020843F8
:100BF0008349486018E082480068FF21013188433A
:100C00007F490860FFF7F6FC054606E0FFF7F2FCB7
:100C1000401B022801D90320FDE679480068012124
:100C2000890208400028F1D10821206808400828DE
:100C300049D1734880683821084018280BD1704882
:100C40004030006A0221084000283CD0A0690028FA
:100C500039D10120DFE6A06900281AD06848403069
:100C6000006A01210843664940310862FFF7C2FC6F
:100C7000054606E0FFF7BEFC401B022801D9032011
:100C8000C9E65F484030006A022108400028F1D0E0
:100C900019E05B484030006A400840005849403144
:100CA0000862FFF7A7FC054606E0FFF7A3FC401B20
:100CB000022801D90320AEE651484030006A0221E3
:100CC00008400028F1D104212068084004287CD184
:100CD000002001904A4880683821084020280BD124
:100CE00047484030C0690221084000286ED0A06803
:100CF00000286BD101208EE64148C06B010F012016
:100D00008843002810D000BF3D48C06B012109076F
:100D100008433B49C8630846C06B0904084000907B
:100D200000BF00BF0120019039480068FF21013158
:100D30000840002816D13648006808433449086046
:100D4000FFF758FC054606E0FFF754FC401B02285D
:100D500001D903205FE62E480068FF2101310840D9
:100D60000028F1D000BFA068012808D124484030F5
:100D7000C0690121084322494031C86120E0A068D0
:100D800005280FD11E484030C069042108431C4982
:100D90004031C8610846C069012108431849403103
:100DA000C8610DE016484030C06941084900144848
:100DB0004030C161C0690421884311494031C86194
:100DC00000BFA068002816D001E040E03EE0FFF739
:100DD00011FC054607E0FFF70DFC401B0D4988425A
:100DE00001D9032017E606484030C06902210840B7
:100DF0000028F0D01EE0FFF7FDFB054614E00000E0
:100E0000001002400024F400100000200800002020
:100E10000070004088130000FFF7ECFB401B6649A0
:100E2000884201D90320F6E56448C06902210840E0
:100E30000028F1D10198012808D160484038C06BE2
:100E40000121090788435D494039C86300BFE06953
:100E500000285CD059484038806838210840102864
:100E60007CD0E069022853D1544840380068012101
:100E700009068843514940390860FFF7BBFB054626
:100E800006E0FFF7B7FB401B022801D90320C2E5AB
:100E90004A48403800680121490608400028F0D13E
:100EA000616A206A0843A16A09020843E16A0843AB
:100EB000216B0843616B084340494039C968404A87
:100EC000114008433D494039C86008460068012187
:100ED000090608433949403908600846C0680904D2
:100EE000084336494039C860FFF784FB054606E0F1
:100EF000FFF780FB401B022801D903208BE52F4818
:100F0000403800680121490608400028F0D050E030
:100F10002A4840380068012109068843274940399A
:100F20000860FFF767FB054606E0FFF763FB401B21
:100F3000022801D903206EE52048403800680121CD
:100F4000490608400028F0D11C484038C0681D49B7
:100F500008401A494039C8602BE0FFE7E0690128E2
:100F600000D158E515484038C668B107890F206A96
:100F700081421CD170203040616A884217D17F20A5
:100F800000023040A16A0902884210D11F204004AB
:100F90003040E16A88420AD1072040063040216B88
:100FA000884204D1710F4907606B814201D0012052
:100FB00031E500202FE500008813000040100240BA
:100FC0008C80C111FCFFFEEE70B50446002C01D1EF
:100FD000012070BD606A002808D1FF2105316068DA
:100FE000884200D105E00021E16102E00021216199
:100FF00061610021A1625D20005D002804D15C20B8
:101000000155204600F066F802215D200155206858
:101010000068402188432168086007210902E068D0
:10102000884201D9002501E001252D030F21090285
:10103000E068884206D007210902E068884201D0B2
:101040000021A162FF21053160680840212292023F
:10105000A168114008430222216911400843217D03
:10106000C907C90F08431202A16911400843382279
:10107000E169114008438022216A1140084392012E
:10108000A16A1140084321680860A069000C04218E
:1010900008401022616A114008430822616B114028
:1010A00008430F221202E16811400843012109039D
:1010B00029400843216848602068C0690121C902AD
:1010C00088432168C8610020206601215D20015508
:1010D00000207EE710B586B00446142101A8FFF772
:1010E0007BF81849206888422AD100BF164800685A
:1010F00089140843144908600846006889140840A8
:10110000009000BF00BF00BF0F484038406B012176
:1011100008430D49403948630846406BC007C00F7B
:10112000009000BF00BF1620019002200290002016
:1011300003900490059001A905200007FFF768F9C6
:1011400006B010BD0030014040100240FFB583B032
:10115000044616461D46002002905D20005D0128D1
:1011600002D002200290D6E0FF210531606888425B
:101170000ED1A06800280BD104215D200155334613
:101180000095049A1146204600F0CCF807B0F0BD57
:1011900000BF5C20005D012801D10220F6E701219B
:1011A0005C20015500BFFFF725FA07460498002888
:1011B00001D0002E02D101200290ACE004215D207C
:1011C00001550020206604982064442006534620E0
:1011D00006530020A063A087E087E0642065072114
:1011E0000902E068884207D92068406801210903A4
:1011F00088432168486006E02068406801210903AF
:101200000843216848600121C903A06888420CD1C5
:1012100020680068402188432168086020680068D1
:101220000121890388432168086020680068402103
:101230000840402804D020680068084321680860FE
:1012400007210902E068884229D823E020688068E5
:10125000C007C00F00280DD02068007B216C0870EB
:10126000206C401C20644620005B401E81B246205A
:1012700001530FE0FFF7BEF9C01BA84202D3681C60
:10128000002801D1002D05D10320029001215D200D
:10129000015540E04620005B0028D7D128E023E03C
:1012A00020688068C007C00F00280DD02068C06883
:1012B000216C0880206C801C20644620005B401E4E
:1012C00081B2462001530FE0FFF794F9C01BA842FA
:1012D00002D3681C002801D1002D05D10320029003
:1012E00001215D20015516E04620005B0028D7D182
:1012F0003A462946204600F0C2F9002801D02020B5
:101300002066206E002802D00120029002E0012118
:101310005D20015500BF00BF00215C20015500BFCA
:10132000029833E7FFB585B004461D460E9E0120A6
:1013300001900020009000BF5C20005D012802D1D8
:10134000022009B0F0BD01215C20015500BFFFF76C
:1013500051F907465D20005D029060680390049596
:10136000029801280DD0FF2105310398884205D14C
:10137000A068002802D10298042802D00220009020
:101380000AE10698002804D00798002801D0002D13
:1013900002D101200090FFE05D20005D042802D012
:1013A00005215D2001550020206607982064462015
:1013B0000553442005530698A063E587A5870020C0
:1013C000E064206507210902E068884207D92068A7
:1013D00040680121090388432168486006E02068CD
:1013E00040680121090308432168486020680068BB
:1013F00040210840402804D0206800680843216844
:10140000086007210902E068884257D9606800280F
:1014100002D00498012809D1A06B00882168C86017
:10142000A06B801CA063E08F401EE0873EE0206838
:10143000806802210840022811D1E08F00280ED0D8
:10144000019801280BD1A06B00882168C860A06BAF
:10145000801CA063E08F401EE08700200190206880
:101460008068C007C00F002812D04620005B00280B
:101470000ED02068C068216C0880206C801C20641D
:101480004620005B401E81B246200153012001909E
:10149000FFF7B0F8C01BB04208D3701C002805D07D
:1014A0000320009001215D20015575E0E08F0028A8
:1014B000BDD14620005B0028B9D158E06068002803
:1014C00002D00498012809D1A06B00782168087324
:1014D000A06B401CA063E08F401EE08740E02068C6
:1014E000806802210840022811D1E08F00280ED028
:1014F000019801280BD1A06B007821680873A06BBC
:10150000401CA063E08F401EE0870020019020680F
:101510008068C007C00F002812D04620005B00285A
:101520000ED02068007B216C0870206C401C206469
:101530004620005B401E81B24620015301200190ED
:10154000FFF758F8C01BB04202D3701C002801D12D
:10155000002E05D10320009001215D2001551BE0E4
:10156000E08F0028BBD14620005B0028B7D13A4667
:101570003146204600F0CAF8002803D00120009030
:1015800020202066206E002802D00120009002E07A
:1015900001215D20015500BF00BF00215C200155E5
:1015A00000BF0098CDE6000070B504462546681ED1
:1015B0000949884201D901200CE0681E07494861A9
:1015C0000321081F00F004FA002004498861072065
:1015D0000861002070BD0000FFFFFF0000E000E098
:1015E00000BFFEE708B500BF0D48406B202108434F
:1015F0000B4948630846406B20210840009000BF1B
:1016000000BF00BF0648406B0121084304494863FE
:101610000846406BC007C00F009000BF00BF08BD68
:101620000010024010B5124812490860FF20053032
:1016300048600121C9030F48816007210902C16088
:101640000221016101214161890481612021C1617F
:1016500000210162416281620721C16200210163B0
:101660004163FFF7B1FC002801D0FEF7CDFE10BDAD
:10167000003001401400002000BFFEE77047F8B5BD
:1016800004460E461546FF210531606888420ED19A
:101690000121C903A068884203D04911A06888428B
:1016A00005D12068006840218843216808603346DE
:1016B000002280212046009500F0DCF8002805D0AB
:1016C000206E2021084320660320F8BDFF2105314C
:1016D0006068884218D10121C903A068884203D0FC
:1016E0004911A06888420FD13346002203214902E4
:1016F0002046009500F040F8002805D0206E2021FB
:10170000084320660320E0E70020DEE7F8B5044642
:101710000E461546334600220321C9022046009595
:1017200000F02AF8002805D0206E2021084320660A
:101730000320F8BD3346002280212046009500F0AA
:1017400099F8002805D0206E202108432066032048
:10175000EFE733460022032149022046009500F0BE
:101760000BF8002805D0206E2021084320660320B6
:10177000DFE70020DDE70000F0B585B004460D4648
:1017800016461F4600200090FEF734FF0A99401AC3
:10179000381A0390FEF72EFF029020680C3001905B
:1017A0003348006823214843000D039948430490BF
:1017B00056E003204002854206D1002E04D1019854
:1017C0000178009168460078781C002848D0FEF720
:1017D00011FF0299411A0398814202D2039800280E
:1017E00037D120684068E021884321684860FF21A4
:1017F0000531606888420ED10121C903A068884282
:1018000003D04911A068884205D1206800684021B2
:1018100088432168086001214903A06A88420DD1EC
:1018200000BF20680068884321680860206800685D
:101830000121490308432168086000BF01215D20A0
:10184000015500BF00215C20015500BF032005B0F9
:10185000F0BD0498002800D103900498401E049025
:10186000206880682840B042A3D10020EFE7000044
:1018700010000020FFB583B004460D461E46FEF75B
:10188000B9FE0C99401A371AFEF7B4FE01902F48A2
:1018900000684001000D7843029049E0701C002868
:1018A00046D0FEF7A7FE0199401AB84201D2002F98
:1018B00037D120684068E021884321684860FF21D3
:1018C0000531606888420ED10121C903A0688842B1
:1018D00003D04911A068884205D1206800684021E2
:1018E00088432168086001214903A06A88420DD11C
:1018F00000BF20680068884321680860206800688D
:101900000121490308432168086000BF01215D20CF
:10191000015500BF00215C20015500BF032007B026
:10192000F0BD0298002800D100270298401E0290C6
:10193000206880682840A84201D1012100E00021F0
:1019400005988142AAD10020E9E70000100000209C
:10195000704710B5FEF754FE10BD00B593B03821A6
:1019600005A8FEF739FC0020019002900390049036
:1019700001204002FEF7C2FE0120059000040690FF
:1019800002200C9003210D9100210E9110210F9146
:1019900001041091010611910107129105A8FFF7AA
:1019A00035F8002801D0FEF72FFD07200190022016
:1019B0000290002003900490022101A8FEF7CAFEC5
:1019C000002801D0FEF720FD13B000BD70470000D5
:1019D00010B5002819DB1A4A03231B02D21883080A
:1019E0009B00D2588307DC0EFF23A3409A438B074A
:1019F0001B0E8407E40EA3401A43114B0324240258
:101A00001B198408A4001A5118E00E4A03071B0F83
:101A1000083B9B089B00D2588307DC0EFF23A340A2
:101A20009A438B071B0E8407E40EA3401A43054B11
:101A30000407240F083CA408A4001A5110BD00009C
:101A400000E100E01CED00E0FEF7E6FDFFF785FF9A
:101A5000FFF7C8FDFFF7E6FD03E0FEF7A3FC014931
:101A60000860FAE700000020081C3044580000001D
:101A70000000000000000000000000000000000066
:101A80000000000000000000000000000000000056
:101A9000010000000200000003000000040000003C
:101AA0000600000007000000080000000900000018
:101AB0000000000000000000000000000000000026
:101AC000010000000200000003000000040000000C
:101AD000F01A0008000000201400000004010008B3
:101AE000041B000814000020C406000020010008A8
:101AF00000000000000000000400000001000000E1
:041B00000024F400C9
:04000005080000C12E
:00000001FF
